{
    "contractName": "Cases",
    "abi": [
        {
            "inputs": [
                {
                    "internalType": "string",
                    "name": "name",
                    "type": "string"
                },
                {
                    "internalType": "string",
                    "name": "state",
                    "type": "string"
                },
                {
                    "internalType": "string",
                    "name": "category",
                    "type": "string"
                },
                {
                    "internalType": "string",
                    "name": "typeofCourt",
                    "type": "string"
                },
                {
                    "internalType": "string",
                    "name": "adminUserName",
                    "type": "string"
                },
                {
                    "internalType": "string",
                    "name": "password",
                    "type": "string"
                }
            ],
            "name": "addCourt",
            "outputs": [],
            "stateMutability": "payable",
            "type": "function"
        },
        {
            "inputs": [
                {
                    "internalType": "uint256",
                    "name": "",
                    "type": "uint256"
                }
            ],
            "name": "courts",
            "outputs": [
                {
                    "internalType": "string",
                    "name": "name",
                    "type": "string"
                },
                {
                    "internalType": "string",
                    "name": "state",
                    "type": "string"
                },
                {
                    "internalType": "enum Cases.CourtCategory",
                    "name": "category",
                    "type": "uint8"
                },
                {
                    "internalType": "enum Cases.CourtType",
                    "name": "typeofCourt",
                    "type": "uint8"
                },
                {
                    "internalType": "string",
                    "name": "adminUserName",
                    "type": "string"
                },
                {
                    "internalType": "string",
                    "name": "adminPassword",
                    "type": "string"
                },
                {
                    "internalType": "string",
                    "name": "courtId",
                    "type": "string"
                }
            ],
            "stateMutability": "view",
            "type": "function"
        },
        {
            "inputs": [],
            "name": "createCase",
            "outputs": [],
            "stateMutability": "nonpayable",
            "type": "function"
        }
    ],
    "bytecode": "608080604052346029575f80546001600160a01b0319163017815560025561057a908161002e8239f35b5f80fdfe60806040526004361015610011575f80fd5b5f3560e01c80631b9505ea146103b65780631f5a0dd2146101f65763f5b126f41461003a575f80fd5b60c03660031901126101f25760043567ffffffffffffffff81116101f2576100669036906004016104ee565b5060243567ffffffffffffffff81116101f2576100879036906004016104ee565b5060443567ffffffffffffffff81116101f2576100a89036906004016104ee565b5060643567ffffffffffffffff81116101f2576100c99036906004016104ee565b5060843567ffffffffffffffff81116101f2576100ea9036906004016104ee565b5060a43567ffffffffffffffff81116101f25761010b9036906004016104ee565b670de0b6b3a7640000340361019b576002545f1981146101875760208061018593600a600183950180600255604051848101914283523360601b604083015260548201526054815261015e6074826103c8565b519020066040519482869351918291018585015e82019083820152030180835201906103c8565b005b634e487b7160e01b5f52601160045260245ffd5b60405162461bcd60e51b815260206004820152602960248201527f546f2041646420596f7572204f776e2043726561746520796f75206e6565642060448201526837b7329032ba3432b960b91b6064820152608490fd5b5f80fd5b346101f25760203660031901126101f2576004356001548110156101f25760015f526006026102467fb10e2d527612073b26eecdfd717e6a320cf44b4afac2b0732d9fcbe2b7fa0cf682016103fe565b906102727fb10e2d527612073b26eecdfd717e6a320cf44b4afac2b0732d9fcbe2b7fa0cf782016103fe565b7fb10e2d527612073b26eecdfd717e6a320cf44b4afac2b0732d9fcbe2b7fa0cf88201549060ff8083169260081c16926102cd7fb10e2d527612073b26eecdfd717e6a320cf44b4afac2b0732d9fcbe2b7fa0cf982016103fe565b9061034b6103277fb10e2d527612073b26eecdfd717e6a320cf44b4afac2b0732d9fcbe2b7fa0cfb6103207fb10e2d527612073b26eecdfd717e6a320cf44b4afac2b0732d9fcbe2b7fa0cfa85016103fe565b93016103fe565b9361033d6040519860e08a5260e08a01906104ca565b9088820360208a01526104ca565b9360038110156103a2576040870152600a8510156103a25761038261039e94610390938897606089015287820360808901526104ca565b9085820360a08701526104ca565b9083820360c08501526104ca565b0390f35b634e487b7160e01b5f52602160045260245ffd5b346101f2575f3660031901126101f257005b90601f8019910116810190811067ffffffffffffffff8211176103ea57604052565b634e487b7160e01b5f52604160045260245ffd5b90604051915f8154908160011c92600183169283156104c0575b6020851084146104ac57848752869390811561048a5750600114610446575b50610444925003836103c8565b565b90505f9291925260205f20905f915b81831061046e575050906020610444928201015f610437565b6020919350806001915483858901015201910190918492610455565b90506020925061044494915060ff191682840152151560051b8201015f610437565b634e487b7160e01b5f52602260045260245ffd5b93607f1693610418565b805180835260209291819084018484015e5f828201840152601f01601f1916010190565b81601f820112156101f25780359067ffffffffffffffff82116103ea5760405192610523601f8401601f1916602001856103c8565b828452602083830101116101f257815f92602080930183860137830101529056fea2646970667358221220562e426caf0fd690f08efee08c709976e9aa1a5a79d2472d51e6d17c8d1434bd64736f6c634300081e0033",
    "sourcePath": "e:/OpenNyaya/hardhat/contracts/Cases.sol",
    "compiler": {
        "name": "solc",
        "version": "0.8.30+commit.73712a01"
    },
    "functionHashes": {
        "addCourt(string,string,string,string,string,string)": "f5b126f4",
        "courts(uint256)": "1f5a0dd2",
        "createCase()": "1b9505ea"
    },
    "gasEstimates": {
        "creation": {
            "codeDepositCost": "280400",
            "executionCost": "29562",
            "totalCost": "309962"
        },
        "external": {
            "addCourt(string,string,string,string,string,string)": "infinite",
            "courts(uint256)": "infinite",
            "createCase()": "127"
        },
        "internal": {
            "randMod(uint256)": "infinite"
        }
    }
}